{
  "_format": "hh-sol-artifact-1",
  "contractName": "SwapContract",
  "sourceName": "contracts/Swap.sol",
  "abi": [
    {
      "inputs": [],
      "stateMutability": "payable",
      "type": "constructor"
    },
    {
      "inputs": [
        {
          "internalType": "address",
          "name": "tokenSendAddress",
          "type": "address"
        },
        {
          "internalType": "address",
          "name": "tokenRecieveMesureAddress",
          "type": "address"
        }
      ],
      "name": "calculateValue",
      "outputs": [
        {
          "internalType": "uint256",
          "name": "value",
          "type": "uint256"
        }
      ],
      "stateMutability": "view",
      "type": "function"
    },
    {
      "inputs": [],
      "name": "deployerAddress",
      "outputs": [
        {
          "internalType": "address",
          "name": "",
          "type": "address"
        }
      ],
      "stateMutability": "view",
      "type": "function"
    },
    {
      "inputs": [
        {
          "internalType": "address",
          "name": "tokenAddress",
          "type": "address"
        },
        {
          "internalType": "uint256",
          "name": "amount",
          "type": "uint256"
        },
        {
          "internalType": "address",
          "name": "recipientAddress",
          "type": "address"
        }
      ],
      "name": "distributeToken",
      "outputs": [],
      "stateMutability": "nonpayable",
      "type": "function"
    },
    {
      "inputs": [
        {
          "internalType": "address",
          "name": "sendTokenAddress",
          "type": "address"
        },
        {
          "internalType": "address",
          "name": "measureTokenAddress",
          "type": "address"
        },
        {
          "internalType": "address",
          "name": "receiveTokenAddress",
          "type": "address"
        },
        {
          "internalType": "uint256",
          "name": "amount",
          "type": "uint256"
        },
        {
          "internalType": "address",
          "name": "recipientAddress",
          "type": "address"
        }
      ],
      "name": "swap",
      "outputs": [],
      "stateMutability": "payable",
      "type": "function"
    }
  ],
  "bytecode": "0x6080604052336000806101000a81548173ffffffffffffffffffffffffffffffffffffffff021916908373ffffffffffffffffffffffffffffffffffffffff160217905550610cb0806100536000396000f3fe60806040526004361061003f5760003560e01c8063677fdac814610044578063714a091d146100605780639fb27b4314610089578063efdee94f146100c6575b600080fd5b61005e6004803603810190610059919061073b565b6100f1565b005b34801561006c57600080fd5b50610087600480360381019061008291906107b6565b61041e565b005b34801561009557600080fd5b506100b060048036038101906100ab9190610809565b610545565b6040516100bd9190610858565b60405180910390f35b3480156100d257600080fd5b506100db61067e565b6040516100e89190610882565b60405180910390f35b6000859050600084905060006101078888610545565b905060006101158789610545565b90506000670de0b6b3a7640000838861012e91906108cc565b6101389190610955565b90506000670de0b6b3a7640000838961015191906108cc565b61015b9190610955565b9050818673ffffffffffffffffffffffffffffffffffffffff166370a08231336040518263ffffffff1660e01b81526004016101979190610882565b60206040518083038186803b1580156101af57600080fd5b505afa1580156101c3573d6000803e3d6000fd5b505050506040513d601f19601f820116820180604052508101906101e7919061099b565b1015610228576040517f08c379a000000000000000000000000000000000000000000000000000000000815260040161021f90610a4b565b60405180910390fd5b808573ffffffffffffffffffffffffffffffffffffffff166370a08231306040518263ffffffff1660e01b81526004016102629190610882565b60206040518083038186803b15801561027a57600080fd5b505afa15801561028e573d6000803e3d6000fd5b505050506040513d601f19601f820116820180604052508101906102b2919061099b565b10156102f3576040517f08c379a00000000000000000000000000000000000000000000000000000000081526004016102ea90610b03565b60405180910390fd5b8573ffffffffffffffffffffffffffffffffffffffff166323b872dd3330856040518463ffffffff1660e01b815260040161033093929190610b23565b602060405180830381600087803b15801561034a57600080fd5b505af115801561035e573d6000803e3d6000fd5b505050506040513d601f19601f820116820180604052508101906103829190610b92565b508473ffffffffffffffffffffffffffffffffffffffff1663a9059cbb88836040518363ffffffff1660e01b81526004016103be929190610bbf565b602060405180830381600087803b1580156103d857600080fd5b505af11580156103ec573d6000803e3d6000fd5b505050506040513d601f19601f820116820180604052508101906104109190610b92565b505050505050505050505050565b60008054906101000a900473ffffffffffffffffffffffffffffffffffffffff1673ffffffffffffffffffffffffffffffffffffffff163373ffffffffffffffffffffffffffffffffffffffff16146104ac576040517f08c379a00000000000000000000000000000000000000000000000000000000081526004016104a390610c5a565b60405180910390fd5b60008390508073ffffffffffffffffffffffffffffffffffffffff1663a9059cbb83856040518363ffffffff1660e01b81526004016104ec929190610bbf565b602060405180830381600087803b15801561050657600080fd5b505af115801561051a573d6000803e3d6000fd5b505050506040513d601f19601f8201168201806040525081019061053e9190610b92565b5050505050565b60008173ffffffffffffffffffffffffffffffffffffffff166370a08231306040518263ffffffff1660e01b81526004016105809190610882565b60206040518083038186803b15801561059857600080fd5b505afa1580156105ac573d6000803e3d6000fd5b505050506040513d601f19601f820116820180604052508101906105d0919061099b565b8373ffffffffffffffffffffffffffffffffffffffff166370a08231306040518263ffffffff1660e01b81526004016106099190610882565b60206040518083038186803b15801561062157600080fd5b505afa158015610635573d6000803e3d6000fd5b505050506040513d601f19601f82011682018060405250810190610659919061099b565b670de0b6b3a764000061066c91906108cc565b6106769190610955565b905092915050565b60008054906101000a900473ffffffffffffffffffffffffffffffffffffffff1681565b600080fd5b600073ffffffffffffffffffffffffffffffffffffffff82169050919050565b60006106d2826106a7565b9050919050565b6106e2816106c7565b81146106ed57600080fd5b50565b6000813590506106ff816106d9565b92915050565b6000819050919050565b61071881610705565b811461072357600080fd5b50565b6000813590506107358161070f565b92915050565b600080600080600060a08688031215610757576107566106a2565b5b6000610765888289016106f0565b9550506020610776888289016106f0565b9450506040610787888289016106f0565b935050606061079888828901610726565b92505060806107a9888289016106f0565b9150509295509295909350565b6000806000606084860312156107cf576107ce6106a2565b5b60006107dd868287016106f0565b93505060206107ee86828701610726565b92505060406107ff868287016106f0565b9150509250925092565b600080604083850312156108205761081f6106a2565b5b600061082e858286016106f0565b925050602061083f858286016106f0565b9150509250929050565b61085281610705565b82525050565b600060208201905061086d6000830184610849565b92915050565b61087c816106c7565b82525050565b60006020820190506108976000830184610873565b92915050565b7f4e487b7100000000000000000000000000000000000000000000000000000000600052601160045260246000fd5b60006108d782610705565b91506108e283610705565b9250817fffffffffffffffffffffffffffffffffffffffffffffffffffffffffffffffff048311821515161561091b5761091a61089d565b5b828202905092915050565b7f4e487b7100000000000000000000000000000000000000000000000000000000600052601260045260246000fd5b600061096082610705565b915061096b83610705565b92508261097b5761097a610926565b5b828204905092915050565b6000815190506109958161070f565b92915050565b6000602082840312156109b1576109b06106a2565b5b60006109bf84828501610986565b91505092915050565b600082825260208201905092915050565b7f596f757220617373657420697320736d616c6c6572207468616e20616d6f756e60008201527f7420796f752077616e7420746f2073656e640000000000000000000000000000602082015250565b6000610a356032836109c8565b9150610a40826109d9565b604082019050919050565b60006020820190508181036000830152610a6481610a28565b9050919050565b7f436f6e7472616374206173736574206f66207468652063757272656e6379207260008201527f6563697069656e742077616e7420697320736d616c6c6572207468616e20616d60208201527f6f756e7420796f752077616e7420746f2073656e640000000000000000000000604082015250565b6000610aed6055836109c8565b9150610af882610a6b565b606082019050919050565b60006020820190508181036000830152610b1c81610ae0565b9050919050565b6000606082019050610b386000830186610873565b610b456020830185610873565b610b526040830184610849565b949350505050565b60008115159050919050565b610b6f81610b5a565b8114610b7a57600080fd5b50565b600081519050610b8c81610b66565b92915050565b600060208284031215610ba857610ba76106a2565b5b6000610bb684828501610b7d565b91505092915050565b6000604082019050610bd46000830185610873565b610be16020830184610849565b9392505050565b7f416e796f6e6520627574206465706f7965722063616e2064697374726962757460008201527f6520746f6b656e21000000000000000000000000000000000000000000000000602082015250565b6000610c446028836109c8565b9150610c4f82610be8565b604082019050919050565b60006020820190508181036000830152610c7381610c37565b905091905056fea264697066735822122035a901f1499374cc01ca9e799f375e89aeb7fe08854ef1ae643e174bf4cdd63964736f6c63430008090033",
  "linkReferences": {},
  "deployedLinkReferences": {}
}